:020000020000FC
:100000000FEF01B9002702B90CEF07B961E062B93F
:10001000660F62B9603809F0FBCF669562B961304E
:1000200009F0FBCF002703C001E010E020E0309B87
:1000300004C0319B0E942B00FACF202F2295210F64
:1000400022B92227193014F41395F1CF1127093062
:1000500074F70395F2CF002702B9089540E156ECFA
:1000600039EC3A95F1F75A95D9F74A95C1F740E33B
:100070004A95F1F708954FEF58EC5A95F1F74A95E4
:04008000D9F708950F
:00000001FF
